:020000041000EA
:1000000000B5324B212058609868022188439860DF
:10001000D860186158612E4B002199600221596106
:100020000121F02299502B49196001219960352056
:1000300000F044F80222904214D00621196600F024
:1000400034F8196E01211966002018661A6600F04E
:100050002CF8196E196E196E052000F02FF8012189
:100060000842F9D1002199601B49196000215960AB
:100070001A491B48016001219960EB211966A021F2
:10008000196600F012F800219960164914480160C1
:100090000121996001BC002800D000471248134993
:1000A000086003C880F30888084703B5996A0420EC
:1000B0000142FBD001200142F8D103BD02B5186610
:1000C0001866FFF7F2FF186E186E02BD00000240BE
:1000D000000000180000070000035F00212200005C
:1000E000F4000018222000A00001001008ED00E03C
:1000F00000000000000000000000000074B24E7A12
:1001000000200420F7010010C3010010C5010010F9
:10011000C1010010C1010010C1010010C101001097
:10012000C1010010C1010010C1010010C701001081
:10013000C1010010C1010010C9010010CB01001065
:10014000CD010010CD010010CD010010CD01001037
:10015000CD010010CD010010CD010010CD01001027
:10016000CD010010CD010010CD010010CD01001017
:10017000CD010010CD010010CD010010CD01001007
:10018000CD010010CD010010CD010010CD010010F7
:10019000CD010010CD010010CD010010CD010010E7
:1001A000CD010010CD010010CD010010CD010010D7
:1001B000CD010010CD010010CD010010CD010010C7
:1001C00000BE00BE00BE00BE00BE00BEEFF3058054
:1001D000103800BEF2EB8871201F00104C1F001079
:1001E0003802001090A31AE71E481F49086006C88D
:1001F00081F3088810471D480068002801D019487D
:10020000F3E70DA40ECC002902D000F012F8F9E7B4
:100210001749184A002000E001C19142FCD116495B
:100220008847164988471649884700BEFDE701C937
:1002300001C29A42FBD370474C1F0010D00000202F
:1002400058020020D42000100000042000000420E8
:10025000D420001000100420001004200000000032
:10026000704700000000000008ED00E0000000D032
:100270005802002068060020C917001099030010DA
:10028000C1170010F8B5C0460448054B10B58342AD
:1002900003D0044B002B00D0984710BD580200201B
:1002A000580200200000000006480749091A8B1078
:1002B000C90FC91810B5491003D0044B002B00D04A
:1002C000984710BD5802002058020020000000008E
:1002D00010B5074C2378002B09D1FFF7D5FF054B4C
:1002E000002B02D0044800E000BF0123237010BDA2
:1002F000D805002000000000DC1D0010054B10B5E3
:10030000002B03D00449054800E000BFFFF7CCFFF5
:1003100010BDC04600000000DC050020DC1D001000
:10032000A4231021154A10B5D1500839D1501449D1
:10033000144B08681A6890421FD00A68124C1A6061
:10034000124B0A68186883001B189B001819006874
:1003500042400F4812048446120C63441A600D4B4D
:100360000A681B689900C91889000B1918681304DA
:1003700043401B0C1B0461440B6010BD0000054092
:1003800028060020380600200C00054054060020F6
:100390000C10054058060020F0B5C64600B501F027
:1003A00023FB0421182000F071F80421172000F02D
:1003B0006DF80423082210212A4C2B4EA0462B4D09
:1003C0003360013B2B60A133E150E250284B042005
:1003D00019601A60274900F0EBF80121042000F0B1
:1003E000D5F82D683668AB005B199B0098444046F1
:1003F000B20092199200204F11190F610761C827AE
:100400007F004F6047600F680C210800B8438446A6
:100410001A4817186046386040460068184F8143F4
:10042000164818180160D1190868164988464840CE
:10043000154900048C4641466244000C1060DA19EC
:100440001268634451400904090C19600123190022
:10045000A022B140AB400020A150A35080BCB846C0
:10046000F0BDC0460000054054060020580600209C
:10047000A82005402103001088130000001005404B
:100480000C000540350C00000C10054010B5402450
:10049000084A83009A181268C0005440C0222240C3
:1004A000054CA44663441A60044B9C46604441607A
:1004B00010BDC04604C0014004D0014000400140CE
:1004C0000FB400B5084883B001F0E0FA049B002B9C
:1004D00007D005A91800019101F058F9034801F06F
:1004E000D5FA012001F06AF9DC1D0010EC1D0010A6
:1004F00070B5EFF3108C72B60D4D2B68002BFCD04D
:10050000BFF35F8F0724CB08C618C05C01230C40E3
:10051000A3401C000440034207D103433370BFF3E0
:100520005F8F2C608CF3108870BD1000FFF7C8FF40
:100530002C0100D0044A1078431CDBB2172B00D9E1
:10054000102313707047C046A80100200021044BFF
:10055000044ABFF35F8F02C39342FAD17047C0468B
:10056000000100D0800100D0054B064A1360064A06
:10057000136053609360D36013615361936170475C
:100580008080808000E400E004E400E01F23184045
:100590001E3B8340002905D0C021044A4900535026
:1005A00013607047802201498B50FAE700E100E0B8
:1005B00070B50D00EFF3108672B60F4A1368002B6A
:1005C000FCD0BFF35F8F0D4B10309B6884001B592C
:1005D0000B4A934203D09D4201D000F00FFF074B1E
:1005E0009B681D51BFF35F8FBFF35F8F0022024BEB
:1005F0001A6086F3108870BD240100D000ED00E081
:10060000CD010010F0B5DE4657464E464546E0B5F2
:100610000C0083B0EFF3108972B65F4A1368002BA9
:10062000FCD0BFF35F8F5D4B9A68030010339F00CF
:10063000D5595B4A904695423DD0A5424ED0594E81
:10064000AA1B2F2A37D8584A93461268944601228B
:1006500061469246824011401F221040524682401D
:10066000924601918022514658468150BFF35F8FD8
:10067000EFF305829346002A32D101232A009A43E0
:100680009068844208D17CE04B005B189B00F31813
:10069000986884422ED01A00062151560029F3DAB8
:1006A00084424DD0019B002B1FD0C02251463E4BAF
:1006B000520099501960394B9B68DD51BFF35F8F31
:1006C000BFF35F8F0022344B1A6089F3108803B0A8
:1006D000F0BCBB46B246A946A046F0BD1500EAE70D
:1006E0009342CAD000F08AFEC7E7802351462E4AC3
:1006F000D150E0E706215956002922DB4A00501864
:10070000800034188046A0689860E079D87106208F
:1007100020569871002825DBA488F01A640524155A
:1007200044440019E0240005400D24022043988031
:1007300052181E4B9200B6181A781970B271B1E7B0
:100740001300594600290FD1FF319171184991804A
:1007500016490A789A71174A9B1B5B415A43120D3E
:100760000A709FE71448E2E7144A1549D21A083A7A
:100770005002400D01439980124952080A43DA8021
:1007800090E70621515613000029B7DA5A46002A8D
:10079000EAD14546DCE7C046240100D000ED00E088
:1007A000CD010010AC01002000E100E06406002053
:1007B00001BDFFFFAAAA000001BD0000E601002064
:1007C00000F0FFFF00F8FFFF70B501240443EFF3D2
:1007D0000581EFF3108C72B6214A1368002BFCD010
:1007E000BFF35F8F1F4B05001F4AED1A6D416A432F
:1007F000120D1E4D8900AE6852B27658A6421CD02A
:100800000621595691421CD012215956914222D0AC
:100810001E215956914220D02A2159560324914233
:1008200010D0134B19781A708171BFF35F8F0022BB
:100830000B4B1A608CF3108870BDAB680D4C5C508C
:10084000EFE700246100091989005B18FF21997105
:1008500009499980E5E70124F4E70224F2E7C0465C
:10086000240100D0AC010020AAAA000000ED00E0A5
:1008700064060020CD01001001BDFFFF024B9C4625
:10088000614489000160704740000034F8B5134DA1
:10089000134E2C00FF27B5421ED22368002B0FD029
:1008A000FFF748FE01002800FFF7E8FFA780BFF32D
:1008B0005F8F0834B4420FD223682500002BEFD19C
:1008C000FFF738FE01002800FFF7D8FF2771BFF3BC
:1008D0005F8F0834B442EFD3F8BDC0464802002011
:1008E000580200200A4B1968EFF3108072B60A68AC
:1008F000002AFCD0BFF35F8F1B68BFF35F8F00221D
:100900001A6080F3108840BF002000217047C04665
:1009100050060020F0B5DE4657464E464546E0B547
:1009200085B0EFF30582032313409A001100039270
:10093000B64A5258904601229A40B54B91461A60E9
:1009400031E043469B881BB2002B00DB9DE0434611
:100950009B79002B00D0EFE0434608241C5F002C5D
:1009600000DA17E142465269630094461B19DB0026
:1009700063449C68DD68631C00D113E1A54B0399B7
:100980009C4661449A6A0B69A01A9B1A984200D24D
:100990000C61A04800F0C0FA241A8D41002D00DD42
:1009A000F8E000D12EE14B469A48436343460822C3
:1009B0009B5E9A46002BC4DB424652695B0093461D
:1009C0005344DB009B445B469E68DF6800F0A4FA5A
:1009D000801BB9410029B4DB002F00DAEDE05B4653
:1009E0008D4A1B69934200D1E0E041465A460820F7
:1009F000085E5288000410435A4651699847040023
:100A00000D0023002B4300D1D7E0002D00DBF0E0E8
:100A1000361BAF4134003D005B469C60DD60002129
:100A2000595E00298DDB43465B6922009C462B0002
:100A300048004018C00060448668C768921BBB41EC
:100A4000002B00DA7DE743466646020000940195DC
:100A500019810CE07B00DB19DB00F3180098019989
:100A60009C68DD68001BA941002904DB1A000023F3
:100A7000D75E002FEEDA5B461F8053461380434655
:100A80009B881BB2002B00DA61E743461A69EFF33B
:100A9000108172B61368002BFCD0BFF35F8F434602
:100AA0009B8842461BB29A4601235B42938013699E
:100AB000BFF35F8F00221A6081F310885346002B2A
:100AC00000DA44E743465B699C46082343449B465F
:100AD00053465F0043465744FF0008229A5E67442E
:100AE0005E46BC68FD68002A19DB3B000094019556
:100AF00067469C4604E01E000023F25E002A0BDBE2
:100B00000098019953009B18DB00FB189C68DD6876
:100B1000001BA9410029EEDA6346BC461F0053467C
:100B2000338000217B5E3A809A46002BD0DA434620
:100B30009B79002B00D10FE7002342469371434677
:100B400046460821595E08364B1C23D047468C4642
:100B5000556902E006004B1C17D04B005B18DB0008
:100B6000E8180A00E95E43881BB2002BF2DA012381
:100B70005B42DC178360C4606245ECD031803B8906
:100B8000944603803A814B1CE7D16446B846002C5A
:100B900000DBE7E640BF05B0F0BCBB46B246A94665
:100BA000A046F0BD6B1C00D0E8E6F2E65B465C694F
:100BB000200023699847002821D15B4642461B88C4
:100BC00013811269EFF3108372B611680029FCD00B
:100BD000BFF35F8F4246594652880A8042465146CB
:100BE00051801269BFF35F8F0021116083F3108879
:100BF000A7E6084800F090F924184D410CE7656815
:100C00002468FEE6002C00D1CDE6C3E73C060020B8
:100C10003C700540004005401509001070B52E4C91
:100C20002569002D04D00A212C48FFF727FE70BD4E
:100C30002B4E0321300000F065F9E660FFF77AFCE7
:100C4000284B03229C46D02322701B061B680121DF
:100C50006370254B6044A3600F2380002061022055
:100C6000638063694942A180198002311986473146
:100C70001D83585218315A5275325C3999521832C4
:100C80000131995218320131995218320131995279
:100C9000083518329D5202311832995218320131FA
:100CA0009952183201319952183201319952183241
:100CB000013199521832013199520C4B0C49DC60C8
:100CC00001303562FFF774FC01210320FFF75EFC61
:100CD000084B1D60A7E7C046F40100205006002025
:100CE0000040054040000034FFFF10003C0600209B
:100CF000150900103860054070B5C646010000B502
:100D00000469EFF3108C72B620680028FCD0BFF3A2
:100D10005F8F02200D5E48696C0080466419E40014
:100D20004444002D01DB208848800869BFF35F8FB1
:100D3000002606608CF31088002D30DBE3606388AA
:100D40000598013320615B0406985B0CA26060612A
:100D50001A1C002B21D090B22B04628018430A6920
:100D6000EFF3108672B61368002BFCD0BFF35F8FD1
:100D70008B8823808D800B69BFF35F8F00221A6000
:100D800086F310880B7801329A40CB6805498C466F
:100D900063441A6040BCB04670BD0122DBE701200D
:100DA0004042F7E73C20000010B543890A14934203
:100DB00033DD53009B184269DB00944604696344A9
:100DC000EFF3108C72B62268002AFCD0BFF35F8F5D
:100DD0005A88090494B2090C8A4208D00369BFF307
:100DE0005F8F00221A608CF31088002010BD8022D3
:100DF000120214435C80012302698371BFF35F8F89
:100E0000002111608CF31088054902788C469340CC
:100E1000C268012062441360E8E70020E6E7C046AC
:100E20003C200000F0B5CE46474680B504000D00DA
:100E300083B0EFF30587002F3BD12F4E81463378E7
:100E4000F26804339B00916A9B58421A5B1A9A42DB
:100E50000ED320BF294A0020536AAB4203D3926AC3
:100E6000013091453CD803B0C0BCB946B046F0BD96
:100E700000F05AF822002B00121A8B41002B26DBBF
:100E80001F4B2200009330002B000197FFF734FF27
:100E9000011E1CDD194BA8465A6A954225D920BF70
:100EA0003000FFF781FF154A0020536A9845DAD8D1
:100EB000D5E7124A0020536A8B42D4D3926A01309C
:100EC000A242D0D2581A421E9041C0B2CBE70B4A80
:100ED0000020536AAB42C6D3926A01209145C2D921
:100EE000E81A421E9041C0B2BDE79B6A9C42D7D926
:100EF0009542D5D1D3E7C046F4010020004005401B
:100F0000E508001010B5024A0248FFF7F1FA10BDDB
:100F1000F01D0010FC0500200300416A0A00986AD9
:100F2000596A8A42FAD17047034B596A0A00986A93
:100F3000596A9142FAD170470040054070B50400EB
:100F40000D00124A536A1900966A536A8B42FAD10D
:100F50003000190024184D41AB4211D80ED02B009F
:100F60000A494A6A9A42FCD307D1084A02E0516A08
:100F7000994202D1916AA142F9D370BDA642EED93D
:100F8000012301246442E5175B42E9E70040054084
:100F9000F8B5040006200D0000F076F9002842D0D4
:100FA000364B3749E21853425A418023DB039C46B3
:100FB0009205344B62441A60334B1A6010000B6880
:100FC0009843FBD12D4B8021E3185A4253412F4ABD
:100FD0005B0049009952062000F056F92900C00034
:100FE00000F0EAFA0130C3091ED1402701226262F3
:100FF000A362266BF30722D4E36A254B0620E5188B
:1010000000232B60266300F03FF93900800000F0D8
:10101000D3FA7022E36A5A407E2313402B601D4BA3
:1010200023630323A364F8BD1B4A93421ED9002304
:101030001A4A1B4F6262A362266BF307DCD5194B79
:10104000144AE3181A60656AA26A0620AD01AD1859
:1010500000F01AF9144900F0AFFAAD0201002800BF
:1010600000F0AAFA0021FFF769FFC5E74006800EED
:101070009F011A003F180300B9E7C0460080FCBF7B
:1010800008C0004000E0004000F000405C06002086
:101090002C10000001030000FEFF0000FFFF000015
:1010A000C0FF3F00303000004E0E0000F8B5DE46B5
:1010B0004E4657464546E0B58B4605000A9918004E
:1010C000160000F079FA0A9B6C001F02324B64197B
:1010D0009C46A4006444636881469F4200D96760CF
:1010E0002B1FDBB29846012B30D9C02380229B01F5
:1010F000E31812011A60294BAD0059599A4600298C
:101100001BD1226876017240E026802316404246B9
:101110005B01E3181E60012A30D9802380229B01E5
:10112000E31812011A6053464A4667605A51F0BCF0
:10113000BB46B246A946A046F8BD586900F03CFA45
:10114000431C5800C0180338FDD2DAE75B46012B78
:10115000CBD1C02303229B01E3181A60023AA36893
:101160001A42FCD0E0232268760156401E408023BC
:101170000A4A5B019246E3181E60AD005A46216898
:10118000514003220A401A6001225B469A40A3683C
:101190001A42FCD0C1E7C046008000400006002093
:1011A000F0B546464F46D646C0B51F00344B440006
:1011B0009C462418A4006444636888461600FF2BEC
:1011C00002D880235B006360031FDBB29A46012BC9
:1011D00030D9C02380229B01E31812011A60294BE9
:1011E00085005959994600291BD122687601724021
:1011F000E0268023164052465B01E3181E60012A58
:1012000030D9802380229B01E31812011A608023C9
:101210005B0063604B465F51E0BCBA46B146A846EE
:10122000F0BD586900F0C8F9431C5800C0180338D5
:10123000FDD2DAE74346012BCBD1C02303229B0129
:10124000E3181A60023AA3681A42FCD0E02322682D
:10125000760156401E4080230A4A5B019146E318FE
:101260001E60850042462168514003220A401A60F0
:10127000012342469340A2681342FCD0C1E7C04616
:101280000080004000060020014B8000C0587047DD
:1012900000060020F8B5040020481D0017000E00CD
:1012A00000F08AF90100380000F086F9069B290455
:1012B0001B0319432368002B1EDB194B194DE21841
:1012C00053425A4180235B019C461203164B6244F1
:1012D0001A60164B1A6017002B689F43FBD1144B02
:1012E0002660E2182123A06013602368002BFCDA3B
:1012F0000823E1601360F8BD3F2322681340B34226
:10130000DBD1A3681B051B0D8342D6D1EE22E36817
:10131000D20213408B42D0D1EDE7C046001BB7008C
:101320000040FDBF08C0004000E0004000F0004069
:10133000043000008023024A9B000B43D3627047B5
:1013400000800540142310B50100188804331B8861
:10135000984710BD162310B50100188802331B886A
:10136000984710BDF8B54746CE4680B50F1E19D038
:1013700014239946043304000025012698464B4661
:101380001888434621681B88984701C4431E98412A
:10139000013540420640AF42F1D13000C0BCB946F1
:1013A000B046F8BD0126F8E7142370B5040018888C
:1013B00004331B880D000549984703000020002CCA
:1013C00001DB0130A04029009847C046554200008B
:1013D000AA23064A1B0113602F230549D360054B3E
:1013E00019605368002BFCDA7047C0460040024089
:1013F00000B0FA00006002407047C04610B50148D6
:10140000FFF75EF8141E001070B5074D074EB54289
:1014100009D20024013E761BB60808CD9847230068
:101420000134B342F9D170BD981D0010D41D0010D5
:10143000054B064A06491A60064A074B1A60100017
:101440000B689843FBD1704700E00040BFCDFBFE26
:1014500008C00040FE7F3C0000F00040044BDB6C05
:10146000002B03D18022034BD2021A607047C04682
:10147000000011504C201150044A054B1A60054AD7
:101480001368DB018033FBD17047C046FFFFFF01CB
:1014900000F0004008C000404022034B9A675A67A2
:1014A0001A67DA667047C04600F0014010B5FFF7D2
:1014B0004DF810BD70B5044D044C2800C022A16841
:1014C00000F056F9A56070BD0000002000ED00E0BE
:1014D000002310B5294C82B0A367FFF779FF0122E2
:1014E000274B1A60636C012BFCD10322254B1A6039
:1014F000224A936B012BFCD1013300930121224A34
:1015000022480433FFF7C6FE052301210093204A39
:101510002048FFF7BFFE0022022104201E4BFFF7E8
:101520003FFE0022012105201C4BFFF739FE00225F
:10153000002107201A4BFFF733FE0022002108206C
:10154000174BFFF72DFE8023DB00009300220021C4
:101550000920134BFFF7AAFD0022104B00210620A3
:10156000FFF71EFE0420FFF78FFE0E4900F024F85F
:1015700001000020FFF7DEFE02B010BD0080004039
:101580003CB0004030B00040002F6859008002405D
:10159000008C864700C00240001BB700405973070B
:1015A000006CDC0240420F0001480421014B184747
:1015B0001002002065130010114A936F9B0813D28C
:1015C00010665166002905D0FFE7FFE7FFE7516F7E
:1015D000106F704704B5002801D00020C04300F010
:1015E000CBFB002104BDC046F0B5146E556E576F9D
:1015F000166FFFF7E5FF1466556657671667F0BD6F
:10160000000000D0132370B51D78012D19D014DD12
:101610001E48FFF79FFE06001D48FFF79BFE1D4C6E
:1016200080223100200000F0A3F8022D06D01A48D5
:10163000FFF788FE194B186070BD164C184BA36459
:10164000F5E7174B134C23606360A360E3602361ED
:101650006361A361E36123626362A362E362236364
:101660006363A363E36323646364A364E364236544
:101670006365A365E36523666366A366E366236724
:101680006367A367E367A364D1E7C04653440000E0
:1016900053460000D80300204C3300004C060020C5
:1016A000A516001007B5604601880A0A0230DF2A35
:1016B000FAD1C9B2820804D30288408800041043DA
:1016C00000E00068014A5050039007BDD803002095
:1016D000132310B512481C78FFF73CFE0100012CC3
:1016E0000AD003DD80220F4800F042F80E48FFF7D1
:1016F00029FE0E4B186010BD0A4C5422200000F049
:1017000037F80B4B6365A365E36523666366A366E1
:10171000E36623676367A367E3672362E361E5E743
:1017200053460000D80400204C3300004C06002033
:101730003517001007B5604601880A0A0230DF2A13
:10174000FAD1C9B2820804D3028840880004104349
:1017500000E00068014A5050039007BDD804002003
:1017600001480421014B1847200200206513001096
:10177000014B5B68184700002002002010B50028CC
:1017800000D110BD00F036F9FBE7C04610B5094A9C
:101790000300146884B0002C08D001220091064890
:1017A000524203A9A047012004B010BD00F06EF919
:1017B0000020F9E7340600207D17001000BEFDE789
:1017C00010B5FFF7FBFFC04670B5FFF71DFE074DD4
:1017D000074EB54209D20024013E761BB60808CD5B
:1017E000984723000134B342F9D170BDD41D0010D5
:1017F000DC1D0010030010B5080011001B6898479D
:1018000010BDC046F0B546464F46D646C0B5437DEE
:1018100080460E001700002B46D0002A3FDD4B1EED
:101820009946244B0125002400209A460DE04B46A2
:101830001B5D0D3B5A425341325DDBB20A2A0BD08D
:101840002B00013401359F421ADD002CEFD14346B5
:10185000325D1B7D0A2AF3D1002BF1D1A04204DABC
:101860004346211A1B6830189847434650461B6868
:1018700002219847013428002B0001359F42E4DC07
:10188000874204DD4346391A1B6830189847F61919
:10189000013E33780D3B5A42534142461375E0BC3A
:1018A000BA46B146A846F0BD03681100300098471B
:1018B000F5E7C046B01E0010F0B5DE4657464E466E
:1018C0004546E0B585B017001C0006000D00FFF787
:1018D0002BFB0023314A12184B41002B59DB3049B6
:1018E00008008A4600F050FA01906B1C03D13000CA
:1018F00000F00AFA0500002C26D12A4B98462A4B04
:101900001C68002C15D0002F21D1284F02E024693B
:10191000002C0ED02368002BF9D03B68002B01D09F
:10192000A342F4D120002A003100C0472469002CD2
:10193000F0D1019B002B28D1280005B0F0BCBB469C
:10194000B246A946A046F0BD194B9846D7E7174BBB
:10195000994602ABDF1D0A239B4602E02469002C56
:10196000E7D02368002BF9D04B461B68002B01D031
:10197000A342F3D12A0031002000C0475B46012278
:10198000390020003B70C047E8E7504600F0ECF912
:10199000D2E70122074B5242A1E7C04640420F0066
:1019A00050020020F51700102C0600203006002001
:1019B00005180010FFFFFF7F0A4A1368002B05D1AE
:1019C0000CE01A001B691032002B07D09842F8D1A6
:1019D000002902D103691360016170470029FCD01E
:1019E0001060FAE72C06002010B500F037F901204E
:1019F00010BDC046F0B5CE46474680B583B06B46B5
:101A00000600DD1D2870FFF78FFA00231A4A12180E
:101A10004B41002B2BDB19490800884600F0B4F934
:101A2000174B81461C68002C14D0164F02E0246925
:101A3000002C0FD02368002BF9D03B68002B01D07D
:101A4000A342F4D1200001222900FFF7DBFE246924
:101A5000002CEFD14B46002B05D1300003B0C0BCA9
:101A6000B946B046F0BD404600F07EF9F5E70122E8
:101A7000054B5242CFE7C04640420F0050020020C3
:101A80002C06002030060020FFFFFF7F70B5040009
:101A900000F03AF901230100050001222000FFF7C0
:101AA0000BFF084B1C68002C06D06368002B05D088
:101AB00098472469002CF8D1280070BD2469002CB7
:101AC000F3D1F9E72C060020F0B50D1E15DD0E4B05
:101AD0000D271A680D4B4519D31859424B410C4933
:101AE0005B005E5E20210478A64207D0936919420C
:101AF000FCD101301460A842F5D1F0BD93691942C0
:101B0000FCD11760F2E7C046600600200080FCBFF1
:101B10005C06002030B504000D1E24DD00201021DD
:101B20001A4B013C1A689369194217D10130936925
:101B30001942FCD1136823548542F4D1144B1B681D
:101B4000002B0AD050239363516B183B0B40114973
:101B50008C4662441360002814D030BD0C4B1B68C7
:101B6000002BEFD1F7E70A4B1B68002B0AD050225D
:101B7000064B1B689A63596B183A0A4005498C4614
:101B800063441A6003204042E7E7C0466006002035
:101B9000F405002034100000064B10B51B68002B24
:101BA00006D00021044A12689163044A10689847DD
:101BB00010BDC046F405002060060020F805002096
:101BC0000822034B19688B691A42FCD17047C04642
:101BD0006006002070B51B4E1B4B32680500D31801
:101BE0005842434114331C00002D04D0174B1A688F
:101BF000002A11D070BD154E3368002BFAD0002199
:101C000020009563FEF7C2FC20001149FEF7FAFCA4
:101C1000104B35601D60EDE71D600E4B2000196014
:101C20000B49FEF7C5FC01212000FEF7AFFC502256
:101C300033689A63596B183A0A4007498C466344E3
:101C40001A60D7E7600600200080FCBFF405002082
:101C5000991B0010F8050020341000000D4B10B542
:101C60001B780D4B0D4C1B780D4B02211B780D4B37
:101C700000202360FEF70AFC02210120FEF706FC8B
:101C8000E12120684902FFF783F901210648FFF7A7
:101C900093FE10BD401F0010441F0010600600207E
:101CA000481F0010004003403002002010B5114CC6
:101CB000114B22689A420FD1104B62689A420BD1A5
:101CC0000F4BA2689A4207D1002301200022002175
:101CD00023604042FFF768FB074B00212360074B5E
:101CE00008486360064BA360FFF728F900232360D0
:101CF00010BDC046C0000020DE8116F0299B72BDD9
:101D00007ABE59D3400D030010B583070AD00300F3
:101D1000032102E001330B4205D01A78002AF9D1E1
:101D2000181A10BD030019680C4A0D4C8A188A4312
:101D300022420FD15968094A04338A188A43224241
:101D400008D15968054A04338A188A432242F1D0DF
:101D500000E001331A78002AFBD1E1E7FFFEFEFE26
:101D600080808080F8B5C04601B40248844601BC3A
:101D7000604700BF6D01002001B40248844601BCE9
:101D8000604700BF9501002001B40248844601BCB1
:101D9000604700BFD1000020311400105D14001016
:101DA000A91500106117001005160010D1160010BB
:101DB000D11400107914001099140010AD14001003
:101DC0008D080010B51400101D0C0010F913001040
:0C1DD00069050010FD020010AD1C0010A1
:101DDC000A2A2A2A2050414E4943202A2A2A0A003C
:101DEC000A000000486172647761726520616C6161
:101DFC00726D20256420616C726561647920636C5E
:101E0C0061696D65640000004861726420617373E0
:101E1C006572740052656C6561736500626F6F74F6
:101E2C00325F77323571303830000000322E312E6F
:101E3C00300000007069636F0000000074657374FB
:101E4C0000000000417072203231203230323500F7
:101E5C0005005250DE65F468D42000100600525084
:101E6C005422A29D501E001006005250861C0302E4
:101E7C00481E001006005250BBFF3CB6401E00101E
:101E8C0006005250ABB36053381E0010060052507F
:101E9C00E182887F281E001006005250D3F0754254
:101EAC00201E00100D0A000055415254207374641A
:101EBC00696E000055415254207374646F75740040
:101ECC005541525420737464696E202F20737464CE
:101EDC006F7574000600525053B4F4A1CC1E001060
:101EEC0008005250120000000800525092100000DE
:101EFC00646F75626C65207265736574202D3E206D
:101F0C00424F4F5453454C000600525053B4F4A169
:041F1C00FC1E001097
:101F20005C1E0010681E0010741E0010801E001041
:101F30008C1E0010981E0010A41E0010141F00100C
:0C1F4000E01E0010EC1E0010F41E00104B
:101F4C00F0B5C646150000B504001E000268EFF39C
:101F5C00108172B61368002BFCD0BFF35F8F042383
:101F6C00E356002B2DDB2268BFF35F8F002010603F
:101F7C0081F31088D0221206127852B290469A42FF
:101F8C0003D1002080BCB846F0BD00270BE02368CD
:101F9C00BFF35F8F1F6081F310882800310000F0C1
:101FAC0033F80028EDD12268EFF3108172B6136874
:101FBC00002BFCD0BFF35F8F23797F2BE7D94346EF
:101FCC0002E0D0231B061B6823712368BFF35F8FCD
:101FDC0000221A6081F310880120D3E70268EFF326
:101FEC00108172B61368002BFCD0BFF35F8FFF23F8
:101FFC0003710368BFF35F8F00221A6081F31088AE
:10200C0040BF70477047C04601B40248844601BCCB
:10201C00604700BF250E00101000000000000000FB
:10202C0000000100000000000000000000000200A1
:10203C000000000000000000000003000000000091
:10204C00000000000000FF000000000001B548681F
:10205C0001318E460047704609380149884701BD59
:10206C00C907001000000000000000000000000084
:10207C0000000000000000005802002000000000DA
:10208C00503300004C330000543300005233000036
:10209C004D5300004D430000533400004334000006
:1020AC00C91A0010C11B0010151B0010D51B001005
:1020BC000000000000010000000000000000000013
:0820CC0000000000000000000C
:04000005100001E9FD
:00000001FF
